:100000000C94B5000C94D2000C94D2000C94D20045
:100010000C94D2000C94D2000C94D2000C94D20018
:100020000C94D2000C94D2000C94D2000C94D20008
:100030000C94D2000C94D2000C94D2000C94D200F8
:100040000C94D2000C94D2000C94D2000C94D200E8
:100050000C94D2000C94D2000C94D2000C94D200D8
:100060000C94D2000C94D2006E616E00696E660032
:1000700000407A10F35A00A0724E18090010A5D45F
:10008000E80000E87648170000E40B54020000CABC
:100090009A3B000000E1F505000080969800000002
:1000A00040420F000000A086010000001027000061
:1000B0000000E803000000006400000000000A00E7
:1000C000000000000100000000002C76D888DC67EA
:1000D0004F0823DFC1DFAE59E1B1B796E5E3E45342
:1000E000C63AE651997696E8E6C28426EB898C9B5F
:1000F00062ED407C6FFCEFBC9C9F40F2BAA56FA5FF
:10010000F490055A2AF75C936B6CF9676DC11BFC80
:10011000E0E40D47FEF520E6B500D0ED902E03009B
:10012000943577050080841E080000204E0A0000E8
:1001300000C80C333333330F986E12831141EF8DA7
:100140002114893BE65516CFFEE6DB18D1844B38E7
:100150001BF77C1D901DA4BBE424203284725E2218
:100160008100C9F124ECA1E53D2711241FBECFEF8A
:10017000D8E0DEBFCDBF11E0A0E0B1E0E2E8F3E1FE
:1001800002C005900D92AC32B107D9F721E0ACE284
:10019000B1E001C01D92A233B207E1F70E94C7028D
:1001A0000C94BF090C940000CF93C82F8A3019F427
:1001B0008DE00E94D4008091C00085FFFCCFC093E9
:1001C000C600CF91089583E084B9289A85E08A9586
:1001D000F1F70000299A85E08A95F1F70000289848
:1001E00085E08A95F1F70000299885E18A95F1F775
:1001F0000000299A85E08A95F1F70000289A85E0A9
:100200008A95F1F70000299808956AE06A95F1F758
:1002100000C093E094B920E030E090E047E050E087
:10022000EEEFBA01621B730BDC0102C0B595A79516
:100230006A95E2F7A0FF02C0289A01C02898BAE0A8
:10024000BA95F1F700C0299A6AE06A95F1F700C003
:1002500029982730310581F02F5F3F4F2830310535
:1002600001F78AE08A95F1F700C0299A9AE09A95F9
:10027000F1F700C029980895E4B9289A1899FECF9B
:10028000EBCF83E084B9289A89E090E02AE02A95B0
:10029000F1F700C0299A2AE02A95F1F700C02998C1
:1002A0000197009799F70C94E3008F929F92AF9279
:1002B000BF92CF92DF92EF92FF92633041F16530AF
:1002C000C1F5BC0180E090E00E9405076B017C0154
:1002D00024E533EE45E25DE30E9493074B015C01A8
:1002E000A7019601C701B6010E94930722EA37EEE3
:1002F0004BE356E30E9493079B01AC01C501B40197
:100300000E94740620E030E040E850E40FC0BC01D9
:1003100080E090E00E9405072AE037ED43E25CE3CD
:100320000E94930720E030E040E252E40E9474060D
:1003300004C060E070E080E89FE3FF90EF90DF9002
:10034000CF90BF90AF909F908F90089588E080935A
:10035000C10083E38093C40086E08093C2000895C7
:10036000FC0127E030E081E090E0299A4AE04A95DC
:10037000F1F700C06081AC01022E01C0440F0A9465
:10038000EAF7189B02C0462B02C0409546234083E3
:1003900029984AE04A95F1F700C02150310928F721
:1003A000089583E084B928988AE08A95F1F700C01F
:1003B000299A8AE08A95F1F700C029988AE08A95FF
:1003C000F1F700C08EEF84B9289A0895CF93DF9398
:1003D00000D0CDB7DEB71A8219828EEF84B9289A81
:1003E0001899FECFCE0101960E94B0010E94D10162
:1003F000CE0102960E94B001898190E0982F882753
:100400002A81822B0F900F90DF91CF9108954F9208
:100410005F926F927F928F929F92AF92BF92CF9294
:10042000DF92EF92FF921F93CF93DF9300D000D023
:10043000CDB7DEB70E94E30083E00E94050125ED01
:100440002A95F1F700000E94E601BC0180E090E0EF
:100450000E9405072AE037ED43E25CE30E94930720
:1004600020E030E040E252E40E9474060E94D90687
:10047000162F0E94410185E00E94050135ED3A9555
:10048000F1F700000E94E601BC0180E090E00E94CC
:1004900005076B017C01612F70E0695171098827A4
:1004A00077FD8095982F0E9407074B015C012CEA8D
:1004B00035EC47EA58E3C701B6010E9493072AE0EA
:1004C00037ED43E25CE30E9475069B01AC01C50178
:1004D000B4010E9493074B015C0124E533EE45E231
:1004E0005DE3C701B6010E9493072B013C01A70100
:1004F0009601C701B6010E94930722EA37EE4BE34B
:1005000056E30E9493079B01AC01C301B2010E9414
:10051000740620E030E040E850E40E9474060E9437
:10052000D90670E080E090E00E9407079B01AC01D3
:10053000C501B4010E94750669837A838B839C830D
:100540000E9441014FEFE0E7F2E04150E040F0400F
:10055000E1F700C0000069817A818B819C810E9453
:10056000D906962F812F0F900F900F900F90DF914B
:10057000CF911F91FF90EF90DF90CF90BF90AF9001
:100580009F908F907F906F905F904F9008958DE136
:100590008A95F1F700000E94A60180E091E0909317
:1005A0002F0180932E01CEE0D1E00E940702192F87
:1005B000682F70E080E090E00E9405079F938F9382
:1005C0007F936F93612F70E080E090E00E940507B9
:1005D0009F938F937F936F93DF93CF930E944D09E7
:1005E0008DB79EB70A960FB6F8949EBF0FBE8DBF0B
:1005F000DCCFA3E1B0E0EFEFF2E00C94F6077C0172
:100600001B016A01FC0117821682838181FF66C388
:10061000BE016F5F7F4F4B01F7019381F10193FDA5
:10062000859193FF81911F01882309F453C385327B
:1006300039F493FD859193FF81911F01853239F43F
:10064000B70190E00E941B0956016501E5CF10E05B
:10065000512C20E02032A0F48B3269F030F480324B
:1006600059F0833269F420612CC08D3239F0803327
:1006700039F4216026C02260246023C0286021C094
:1006800027FD27C030ED380F3A3078F426FF06C03A
:10069000FAE01F9F300D1124132F13C06AE0569EFD
:1006A000300D1124532E20620CC08E3221F426FD11
:1006B00011C3206406C08C3611F4206802C088364D
:1006C00041F4F10193FD859193FF81911F01811107
:1006D000C1CF9BEB980F933018F42061805E06C069
:1006E0009BE9980F933008F0AAC12F7E26FF16E0F1
:1006F0002F73722E853621F4F22FF0647F2E08C0FE
:10070000863621F4622F6068762E02C011111150D6
:1007100077FE07C01C3348F444244394410E27E07D
:100720000BC0183030F4212F06C027E04CE3442ED4
:1007300003C027E017E0412C560174E0A70EB11C5E
:10074000F6016081718182819381042DA4010E9450
:100750002D086C01098100FF02C003FF06C071FC77
:1007600007C072FC08C0612C08C03DE2632E05C0C2
:100770002BE2622E02C090E2692E802F8C7099F1DC
:10078000662011F084E001C083E0851510F0512C43
:100790000BC0581A73FC08C0B70180E290E00E94B9
:1007A0001B095A94C9F7F3CF662029F0B701862DAB
:1007B00090E00E941B0903FD03C00CE610E002C09C
:1007C00008E610E0F72DF0717F2EF8018491882360
:1007D00009F476C271108052B70190E00E941B09A3
:1007E0000F5F1F4FF2CF77FE0FC04C0C04FF04C009
:1007F0008A81813309F44A94141474F5F8E0F415ED
:1008000078F588E0482E2CC076FC2AC0812F90E035
:100810008C159D059CF06CEFC6166FEFD60674F034
:10082000772D7068772E0AC0E2E0F0E0EC0FFD1F34
:10083000E10FF11D8081803319F411501111F4CFB3
:1008400077FE0EC044244394410E812F90E0C816D9
:10085000D9062CF41C1904C04424439401C010E0B0
:1008600077FE07C01C141D043CF496012F5F3F4F18
:1008700005C025E030E002C021E030E0662011F044
:100880002F5F3F4F112331F0412F50E04F5F5F4FFB
:10089000240F351F452D50E02417350714F4521A44
:1008A00001C0512C872D897049F4552039F0B701CA
:1008B00080E290E00E941B095A94F7CF662029F04D
:1008C000B701862D90E00E941B0973FC09C05520DA
:1008D00039F0B70180E390E00E941B095A94F7CFEA
:1008E00077FE5FC09C2D8D2DD7FE02C090E080E08A
:1008F000692E782E40E050E0C601841991099D8749
:100900008C87960126193709280D391D812F90E013
:10091000EE27FF27E81BF90BFF87EE87FFEF6F1627
:100920007F0669F4B7018EE290E02B8B3A8B488BFF
:10093000598B0E941B09598948893A892B89C61409
:10094000D70454F06C857D85661577052CF4F90184
:10095000E40FF51F818101C080E371E0671A71081F
:100960004F5F5F4FEE85FF856E167F066CF0B70117
:1009700090E02B8B3A8B488B598B0E941B092B895B
:100980003A8948895989CACF6C147D0439F49A810F
:10099000963318F4953311F404FF81E3B70190E026
:1009A0004BC08A81813309F00F7EB70190E00E942D
:1009B0001B09111105C074FE18C085E490E017C032
:1009C000B7018EE290E00E941B0982E066246394E6
:1009D000680EF401E80FF11D8081B70190E00E94DC
:1009E0001B09115041F3862DF1CF85E690E0B70148
:1009F0000E941B09D7FC05C0C114D10439F404FFBF
:100A000005C0D194C194D1088DE201C08BE2B70139
:100A100090E00E941B0980E36AE0C616D1042CF026
:100A20008F5FFAE0CF1AD108F7CFB70190E00E94AC
:100A30001B09B701C601C0960E941B0941C183363C
:100A400031F0833779F0833509F058C021C0560161
:100A500072E0A70EB11CF6018081898301E010E0ED
:100A6000640114C05601F2E0AF0EB11CF601C08063
:100A7000D18026FF03C0612F70E002C06FEF7FEFCF
:100A8000C6012B8B0E9410098C012B892F7715C072
:100A90005601F2E0AF0EB11CF601C080D18026FFF6
:100AA00003C0612F70E002C06FEF7FEFC6012B8B98
:100AB0000E9405098C012B892068722E23FD1AC023
:100AC000852D90E008171907A8F4B70180E290E09F
:100AD0000E941B095A94F4CFF60177FC859177FEAA
:100AE00081916F01B70190E00E941B0951105A9447
:100AF000015011090115110579F7E2C0843611F092
:100B0000893651F5560127FF09C0F4E0AF0EB11C3C
:100B1000F60160817181828193810AC0F2E0AF0E9B
:100B2000B11CF60160817181882777FD8095982F2F
:100B3000022F0F7697FF08C090958095709561956C
:100B40007F4F8F4F9F4F00682AE030E0A4010E9442
:100B50006109C82EC8183EC0022F853721F40F7EC8
:100B60002AE030E01DC0097F8F3691F018F48835F7
:100B700059F0B0C0803719F0883711F0ABC0006170
:100B800004FF09C0046007C024FF08C0066006C057
:100B900028E030E005C020E130E002C020E132E092
:100BA000560107FF09C0F4E0AF0EB11CF6016081E9
:100BB00071818281938108C0F2E0AF0EB11CF60111
:100BC0006081718180E090E0A4010E946109C82EDB
:100BD000C8180F7706FF0BC0202F2E7FC11650F4C8
:100BE00004FF0AC002FD08C0202F2E7E05C0DC2CA9
:100BF000202F03C0DC2C01C0D12E24FF0DC0FE012C
:100C0000EC0DF11D8081803311F4297E09C022FF93
:100C100006C0D394D39404C0822F867809F0D3946D
:100C200023FD13C020FF06C01C2DD51418F4150D8C
:100C30001D19D52CD51468F4B70180E290E02B8BF8
:100C40000E941B09D3942B89F5CFD51410F45D189D
:100C500001C0512C24FF12C0B70180E390E02B8B20
:100C60000E941B092B8922FF17C021FF03C088E5C2
:100C700090E002C088E790E0B7010CC0822F867830
:100C800059F021FD02C080E201C08BE227FD8DE218
:100C9000B70190E00E941B09C11638F4B70180E348
:100CA00090E00E941B091150F7CFCA94F401EC0D9B
:100CB000F11D8081B70190E00E941B09C110F5CFA2
:100CC000552009F4C2CCB70180E290E00E941B09D4
:100CD0005A94F6CFF7018681978102C08FEF9FEF7C
:100CE0006396E2E10C9412085058BB27AA270ED055
:100CF000E0C0D1D030F0D6D020F031F49F3F11F4D5
:100D00001EF4C6C00EF4E095E7FBBCC0E92FE2D0AC
:100D100080F3BA17620773078407950718F071F418
:100D20009EF5FAC00EF4E0950B2EBA2FA02D0B0104
:100D3000B90190010C01CA01A0011124FF27591B20
:100D400099F0593F50F4503E68F11A16F040A22F26
:100D5000232F342F4427585FF3CF46953795279597
:100D6000A795F0405395C9F77EF41F16BA0B620B96
:100D7000730B840BBAF09150A1F0FF0FBB1F661FDD
:100D8000771F881FC2F70EC0BA0F621F731F841F20
:100D900048F4879577956795B795F7959E3F08F046
:100DA000B3CF9395880F08F09927EE0F9795879505
:100DB000089598D088F09F5790F0B92F9927B75190
:100DC000A0F0D1F0660F771F881F991F1AF0BA950F
:100DD000C9F712C0B13081F09FD0B1E008959CC036
:100DE000672F782F8827B85F39F0B93FCCF3869505
:100DF00077956795B395D9F73EF490958095709562
:100E000061957F4F8F4F9F4F0895E89409C097FBDE
:100E10003EF490958095709561957F4F8F4F9F4FD1
:100E20009923A9F0F92F96E9BB279395F695879515
:100E300077956795B795F111F8CFFAF4BB0F11F4D8
:100E400060FF1BC06F5F7F4F8F4F9F4F16C088237F
:100E500011F096E911C0772321F09EE8872F762FB5
:100E600005C0662371F096E8862F70E060E02AF0F6
:100E70009A95660F771F881FDAF7880F96958795E2
:100E800097F9089597F99F6780E870E060E008950A
:100E90009FEF80EC089500240A9416161706180692
:100EA0000906089500240A9412161306140605066E
:100EB0000895092E0394000C11F4882352F0BB0FFF
:100EC00040F4BF2B11F460FF04C06F5F7F4F8F4F62
:100ED0009F4F089557FD9058440F551F59F05F3F9D
:100EE00071F04795880F97FB991F61F09F3F79F04C
:100EF00087950895121613061406551FF2CF4695CE
:100F0000F1DF08C0161617061806991FF1CF86954F
:100F10007105610508940895E894BB276627772733
:100F2000CB0197F908950BD0C4CFB5DF28F0BADF15
:100F300018F0952309F0A6CFABCF1124EECFCADF6E
:100F4000A0F3959FD1F3950F50E0551F629FF001DC
:100F5000729FBB27F00DB11D639FAA27F00DB11D35
:100F6000AA1F649F6627B00DA11D661F829F2227BE
:100F7000B00DA11D621F739FB00DA11D621F839F45
:100F8000A00D611D221F749F3327A00D611D231F1B
:100F9000849F600D211D822F762F6A2F11249F5769
:100FA00050408AF0E1F088234AF0EE0FFF1FBB1F8C
:100FB000661F771F881F91505040A9F79E3F51052B
:100FC00070F060CFAACF5F3FECF3983EDCF38695DC
:100FD00077956795B795F795E7959F5FC1F7FE2BD6
:100FE000880F911D9695879597F908952F923F92B6
:100FF0004F925F926F927F928F929F92AF92BF9229
:10100000CF92DF92EF92FF920F931F93CF93DF93D4
:10101000CDB7DEB7CA1BDB0B0FB6F894DEBF0FBE31
:10102000CDBF09942A88398848885F846E847D847E
:101030008C849B84AA84B984C884DF80EE80FD8080
:101040000C811B81AA81B981CE0FD11D0FB6F894F6
:10105000DEBF0FBECDBFED010895283008F027E0B8
:101060003327DA01990F311D87FD916000966105E4
:10107000710539F432602E5F3D9330E32A95E1F734
:1010800008959F3F30F080387105610509F03C5F9D
:101090003C5F3D93913008F08068911DDF93CF93C2
:1010A0001F930F93FF92EF92192F987F9695E92F38
:1010B00096959695E90FFF27E653FF4F992733271B
:1010C000EE24FF24A701E70105900894079428F473
:1010D000360FE71EF81E491F511D660F771F881F28
:1010E000991F0694A1F70590079428F4E70EF81EBF
:1010F000491F561FC11D770F881F991F661F069431
:10110000A1F70590079428F4F80E491F561FC71F32
:10111000D11D880F991F661F771F0694A1F70590B0
:10112000079420F4490F561FC71FD81F990F661F39
:10113000771F881F0694A9F784911095177041F0C6
:10114000D695C79557954795F794E7941A95C1F7A3
:10115000E0E7F0E0689415901591359165919591CF
:1011600005907FE27395E118F10A430B560BC90B0A
:10117000D009C0F7E10CF11E431F561FC91FD01D37
:101180007EF4703311F48A95E6CFE894015030F084
:10119000080F0AF40027021708F4202F2395022FC6
:1011A0007A3328F079E37D932A95E9F710C07D938F
:1011B0002A9589F60694979567953795179517940C
:1011C000E118F10A430B560BC90BD00998F023958F
:1011D0007E9173957A3308F070E37C932013B8F70F
:1011E0007E9170617D9330F0839571E37D9370E320
:1011F0002A95E1F71124EF90FF900F911F91CF9165
:10120000DF91992787FD90950895FC010590615025
:1012100070400110D8F7809590958E0F9F1F08950C
:10122000FC016150704001900110D8F780959095B5
:101230008E0F9F1F08950F931F93CF93DF93182F47
:10124000092FEB018B8181FD03C08FEF9FEF20C041
:1012500082FF10C04E815F812C813D814217530770
:101260007CF4E881F9819F012F5F3F4F3983288308
:10127000108306C0E885F985812F0995892B29F708
:101280002E813F812F5F3F4F3F832E83812F902FF1
:10129000DF91CF911F910F910895A0E0B0E0E3E5B9
:1012A000F9E00C940608FE01359661917191AF0149
:1012B00080912E0190912F010E94F902E2E00C949E
:1012C0002208FA01AA27283051F1203181F1E8944F
:1012D0006F936E7F6E5F7F4F8F4F9F4FAF4FB1E029
:1012E0003ED0B4E03CD0670F781F891F9A1FA11D24
:1012F000680F791F8A1F911DA11D6A0F711D811D25
:10130000911DA11D20D009F468943F912AE0269FE9
:1013100011243019305D3193DEF6CF010895462F48
:101320004770405D4193B3E00FD0C9F7F6CF462F29
:101330004F70405D4A3318F0495D31FD4052419392
:1013400002D0A9F7EACFB4E0A6959795879577954F
:101350006795BA95C9F700976105710508959B01D6
:10136000AC010A2E06945795479537952795BA955F
:10137000C9F7620F731F841F951FA01D0895F8946D
:02138000FFCF9D
:101382000000000200000000D400000000004875C8
:101392006D69646974793A20252E32662C20546571
:0C13A2006D703A20252E3266200A0000F3
:00000001FF
