:100000000C9434000C9451000C9451000C94510049
:100010000C9451000C9451000C9451000C9451001C
:100020000C9451000C9451000C9451000C9451000C
:100030000C9451000C9451000C9451000C945100FC
:100040000C9451000C9451000C9451000C945100EC
:100050000C9451000C9451000C9451000C945100DC
:100060000C9451000C94510011241FBECFEFD8E026
:10007000DEBFCDBF11E0A0E0B1E0E6EAFCE002C0E7
:1000800005900D92AE33B107D9F721E0AEE3B1E0B0
:1000900001C01D92A434B207E1F70E9486010C94BE
:1000A00051060C940000CF93C82F8A3019F48DE0CC
:1000B0000E9453008091C00085FFFCCFC093C60012
:1000C000CF91089583E084B9289A8AE08A95F1F760
:1000D00000C0299A8AE08A95F1F700C028988AE042
:1000E0008A95F1F700C029988AE28A95F1F700C055
:1000F000299A8AE08A95F1F700C0289A8AE08A95C1
:10010000F1F700C02998089565E16A95F1F70000BC
:1001100093E094B920E030E090E047E050E0EEEF6B
:10012000BA01621B730BDC0102C0B595A7956A95F5
:10013000E2F7A0FF02C0289A01C02898B5E1BA955D
:10014000F1F70000299A65E16A95F1F70000299816
:100150002730310581F02F5F3F4F2830310501F7FF
:1001600085E18A95F1F70000299A95E19A95F1F7D2
:10017000000029980895E4B9289A1899FECFEBCF8A
:1001800083E084B9289A89E090E025E12A95F1F787
:100190000000299A25E12A95F1F700002998019796
:1001A000009799F70C9462008F929F92AF92BF9242
:1001B000CF92DF92EF92FF92633041F16530C1F54B
:1001C000BC0180E090E00E949D026B017C0124E56F
:1001D00033EE45E25DE30E942B034B015C01A70176
:1001E0009601C701B6010E942B0322EA37EE4BE3CA
:1001F00056E30E942B039B01AC01C501B4010E9490
:10020000380220E030E040E850E40FC0BC0180E05C
:1002100090E00E949D022AE037ED43E25CE30E94F9
:100220002B0320E030E040E252E40E94380204C098
:1002300060E070E080E89FE3FF90EF90DF90CF9068
:10024000BF90AF909F908F90089588E08093C100F9
:1002500083E38093C40086E08093C2000895FC018C
:1002600027E030E081E090E0299A45E14A95F1F7F6
:1002700000006081AC01022E01C0440F0A94EAF72D
:10028000189B02C0462B02C0409546234083299804
:1002900045E14A95F1F700002150310928F708950A
:1002A00083E084B9289885E18A95F1F70000299ABE
:1002B00085E18A95F1F70000299885E18A95F1F7A3
:1002C00000008EEF84B9289A0895CF93DF9300D071
:1002D000CDB7DEB71A8219828EEF84B9289A1899A1
:1002E000FECFCE0101960E942F010E945001CE0147
:1002F00002960E942F01898190E0982F88272A81F9
:10030000822B0F900F90DF91CF9108952AE32A95C9
:10031000F1F700C00E94250180E091E09093410137
:1003200080934001CEE0D1E00E94620083E00E9411
:1003300084008FE391E00197F1F700C000000E9474
:100340006501BC0180E090E00E949D022AE037ED4B
:1003500043E25CE30E942B0320E030E040E252E401
:100360000E9438021B012C010E94C00085E00E94FF
:1003700084008FE391E00197F1F700C000000E9434
:100380006501BC0180E090E00E949D024B015C0190
:1003900024E533EE45E25DE30E942B036B017C0113
:1003A000A5019401C501B4010E942B0322EA37EE96
:1003B0004BE356E30E942B039B01AC01C701B6013E
:1003C0000E94380220E030E040E850E40E94380209
:1003D000162F072F782E692E5F924F923F922F9201
:1003E00020E030E048EC51E4622D732D842D952DF2
:1003F0000E9438026B017C012CEA35EC47EA58E395
:10040000C501B4010E942B032AE037ED43E25CE30F
:100410000E9439029B01AC01C701B6010E942B0367
:10042000D801F3012B2F3A2F4F2F5E2F0E94390254
:100430009F938F937F936F936F927F920F931F93EE
:10044000DF93CF930E948E030E94C0008FEF93ED45
:1004500020E3815090402040E1F700C000008DB7BC
:100460009EB70E960FB6F8949EBF0FBE8DBF5CCFA1
:100470005058BB27AA270ED0B4C0A5D030F0AAD0C0
:1004800020F031F49F3F11F41EF49AC00EF4E09571
:10049000E7FB90C0E92FB6D080F3BA176207730765
:1004A0008407950718F071F49EF5CEC00EF4E09520
:1004B0000B2EBA2FA02D0B01B90190010C01CA011E
:1004C000A0011124FF27591B99F0593F50F4503EC9
:1004D00068F11A16F040A22F232F342F4427585FBB
:1004E000F3CF469537952795A795F0405395C9F7D3
:1004F0007EF41F16BA0B620B730B840BBAF091508B
:10050000A1F0FF0FBB1F661F771F881FC2F70EC029
:10051000BA0F621F731F841F48F4879577956795FC
:10052000B795F7959E3F08F0B3CF9395880F08F0E5
:100530009927EE0F979587950895E89409C097FB42
:100540003EF490958095709561957F4F8F4F9F4FAA
:100550009923A9F0F92F96E9BB279395F6958795EE
:1005600077956795B795F111F8CFFAF4BB0F11F4B1
:1005700060FF1BC06F5F7F4F8F4F9F4F16C0882358
:1005800011F096E911C0772321F09EE8872F762F8E
:1005900005C0662371F096E8862F70E060E02AF0CF
:1005A0009A95660F771F881FDAF7880F96958795BB
:1005B00097F9089597F99F6780E870E060E00895E3
:1005C0009FEF80EC089500240A941616170618066B
:1005D0000906089500240A94121613061406050647
:1005E0000895092E0394000C11F4882352F0BB0FD8
:1005F00040F4BF2B11F460FF04C06F5F7F4F8F4F3B
:100600009F4F089557FD9058440F551F59F05F3F75
:1006100071F04795880F97FB991F61F09F3F79F024
:1006200087950895121613061406551FF2CF4695A6
:10063000F1DF08C0161617061806991FF1CF869528
:100640007105610508940895E894BB27662777270C
:10065000CB0197F908950BD0C4CFB5DF28F0BADFEE
:1006600018F0952309F0A6CFABCF1124EECFCADF47
:10067000A0F3959FD1F3950F50E0551F629FF001B5
:10068000729FBB27F00DB11D639FAA27F00DB11D0E
:10069000AA1F649F6627B00DA11D661F829F222797
:1006A000B00DA11D621F739FB00DA11D621F839F1E
:1006B000A00D611D221F749F3327A00D611D231FF4
:1006C000849F600D211D822F762F6A2F11249F5742
:1006D00050408AF0E1F088234AF0EE0FFF1FBB1F65
:1006E000661F771F881F91505040A9F79E3F510504
:1006F00070F060CFAACF5F3FECF3983EDCF38695B5
:1007000077956795B795F795E7959F5FC1F7FE2BAE
:10071000880F911D9695879597F90895A0E0B0E010
:10072000E4E9F3E00C942A06FE013596619171919B
:10073000AF0180914001909141010E94A203E2E04B
:100740000C944606ACE0B0E0E8EAF3E00C941A063C
:100750007C016B018A01FC0117821682838181FF73
:10076000BDC1CE0101964C01F7019381F60193FDC5
:10077000859193FF81916F01882309F4ABC1853284
:1007800039F493FD859193FF81916F01853229F4AE
:10079000B70190E00E948A05E7CF512C312C20E070
:1007A0002032A0F48B3269F030F4803259F0833279
:1007B00069F420612CC08D3239F0803339F4216026
:1007C00026C02260246023C0286021C027FD27C0E6
:1007D00030ED380F3A3078F426FF06C0FAE05F9E1D
:1007E000300D1124532E13C08AE0389E300D112491
:1007F000332E20620CC08E3221F426FD6BC12064A2
:1008000006C08C3611F4206802C0883641F4F60127
:1008100093FD859193FF81916F018111C1CF982F35
:100820009F7D9554933028F40C5F1F4FFFE3F983AD
:100830000DC0833631F0833771F0833509F05BC02A
:1008400022C0F801808189830E5F1F4F44244394A6
:10085000512C540115C03801F2E06F0E711CF801E3
:10086000A080B18026FF03C0652D70E002C06FEF4D
:100870007FEFC5012C870E947F052C0183012C8509
:100880002F77222E17C03801F2E06F0E711CF8018D
:10089000A080B18026FF03C0652D70E002C06FEF1D
:1008A0007FEFC5012C870E9474052C012C852068E0
:1008B000222E830123FC1BC0832D90E0481659068D
:1008C000B0F4B70180E290E00E948A053A94F4CF38
:1008D000F50127FC859127FE81915F01B70190E02A
:1008E0000E948A0531103A94F1E04F1A51084114E0
:1008F000510471F7E5C0843611F0893639F5F801F5
:1009000027FF07C060817181828193810C5F1F4F37
:1009100008C060817181882777FD8095982F0E5FD0
:100920001F4F2F76B22E97FF09C090958095709536
:1009300061957F4F8F4F9F4F2068B22E2AE030E0A5
:10094000A4010E94BC05A82EA81844C0853729F42C
:100950002F7EB22E2AE030E025C0F22FF97FBF2E85
:100960008F36C1F018F4883579F0B4C0803719F0AB
:10097000883721F0AFC02F2F2061B22EB4FE0DC0FA
:100980008B2D8460B82E09C024FF0AC09F2F96606B
:10099000B92E06C028E030E005C020E130E002C0FA
:1009A00020E132E0F801B7FE07C0608171818281E9
:1009B00093810C5F1F4F06C06081718180E090E0E1
:1009C0000E5F1F4FA4010E94BC05A82EA818FB2D86
:1009D000FF77BF2EB6FE0BC02B2D2E7FA51450F433
:1009E000B4FE0AC0B2FC08C02B2D2E7E05C07A2CA6
:1009F0002B2D03C07A2C01C0752C24FF0DC0FE01E5
:100A0000EA0DF11D8081803311F4297E09C022FF97
:100A100006C07394739404C0822F867809F073948F
:100A200023FD13C020FF06C05A2C731418F4530C76
:100A30005718732C731468F4B70180E290E02C8788
:100A40000E948A0573942C85F5CF731410F437181F
:100A500001C0312C24FF12C0B70180E390E02C8745
:100A60000E948A052C8522FF17C021FF03C088E55C
:100A700090E002C088E790E0B7010CC0822F867832
:100A800059F021FD02C080E201C08BE227FD8DE21A
:100A9000B70190E00E948A05A51438F4B70180E3FD
:100AA00090E00E948A055A94F7CFAA94F401EA0DC7
:100AB000F11D8081B70190E00E948A05A110F5CF59
:100AC000332009F451CEB70180E290E00E948A05FC
:100AD0003A94F6CFF7018681978102C08FEF9FEF9E
:100AE0002C96E2E10C943606FC01059061507040B2
:100AF0000110D8F7809590958E0F9F1F0895FC01E7
:100B00006150704001900110D8F7809590958E0F3C
:100B10009F1F08950F931F93CF93DF93182F092FD3
:100B2000EB018B8181FD03C08FEF9FEF20C082FF1F
:100B300010C04E815F812C813D81421753077CF4A8
:100B4000E881F9819F012F5F3F4F3983288310830C
:100B500006C0E885F985812F0995892B29F72E8113
:100B60003F812F5F3F4F3F832E83812F902FDF9157
:100B7000CF911F910F910895FA01AA27283051F1C2
:100B8000203181F1E8946F936E7F6E5F7F4F8F4FBE
:100B90009F4FAF4FB1E03ED0B4E03CD0670F781F1D
:100BA000891F9A1FA11D680F791F8A1F911DA11D02
:100BB0006A0F711D811D911DA11D20D009F468943B
:100BC0003F912AE0269F11243019305D3193DEF6E3
:100BD000CF010895462F4770405D4193B3E00FD099
:100BE000C9F7F6CF462F4F70405D4A3318F0495D84
:100BF00031FD4052419302D0A9F7EACFB4E0A69567
:100C00009795879577956795BA95C9F70097610588
:100C1000710508959B01AC010A2E069457954795DE
:100C200037952795BA95C9F7620F731F841F951FD3
:100C3000A01D08952F923F924F925F926F927F92E4
:100C40008F929F92AF92BF92CF92DF92EF92FF92DC
:100C50000F931F93CF93DF93CDB7DEB7CA1BDB0B88
:100C60000FB6F894DEBF0FBECDBF09942A8839882D
:100C700048885F846E847D848C849B84AA84B98434
:100C8000C884DF80EE80FD800C811B81AA81B98140
:100C9000CE0FD11D0FB6F894DEBF0FBECDBFED0154
:060CA0000895F894FFCF57
:100CA600000000020000000053000000000048752C
:100CB6006D69646974793A20252E32662028436F5F
:100CC6006D70616E73617465643A20252E326629F3
:0E0CD6002054656D703A20252E3266200A00EB
:00000001FF
